:100000000C942A000C9434000C9434000C943400AA
:100010000C9434000C9434000C9434000C94340090
:100020000C9434000C9434000C9434000C94340080
:100030000C9434000C9434000C9434000C94340070
:100040000C9434000C9434000C9434000C94340060
:100050000C94340011241FBECFE5D8E0DEBFCDBF25
:100060000E94A8010C941B030C940000CF93DF9313
:100070001F92CDB7DEB78CE3898387E18ABB83E02B
:1000800081BB14BA8BB382608BBB0E94AD010E940E
:10009000CC0111E003C010E001C010E0123009F4FF
:1000A00046C0133009F487C0113009F0C8C0BE0142
:1000B0006F5F7F4F80E090E00E948D0160E031C073
:1000C00048B329818DEC289F312D11243695369522
:1000D0003695330F532F550F550F350F231B2F70A8
:1000E000342F307F232B28BB28B39981989F912DE3
:1000F000112496959695969530E1939FC001112411
:10010000922F9F70892B88BB87B3809587BB8FEF19
:1001100092E527E0815090402040E1F700C00000C8
:100120006F5F6A3068F28FEF87BB1150B7CF89815C
:100130008B3408F0B0CF8B5F898360E070E090E093
:100140000E94790160E031C048B329818DEC289F7D
:10015000312D1124369536953695330F532F550F83
:10016000550F350F231B2F70342F307F232B28BBC7
:1001700028B39981989F912D1124969596959695DF
:1001800030E1939FC0011124922F9F70892B88BB6F
:1001900087B3809587BB8FEF92E527E08150904031
:1001A0002040E1F700C000006F5F653068F28FEF1C
:1001B00087BB10E073CF8981843208F46ECF8550FD
:1001C000898360E070E090E00E94790160E031C0D6
:1001D00048B329818DEC289F312D11243695369511
:1001E0003695330F532F550F550F350F231B2F7097
:1001F000342F307F232B28BB28B39981989F912DD2
:10020000112496959695969530E1939FC0011124FF
:10021000922F9F70892B88BB87B3809587BB8FEF08
:1002200092E527E0815090402040E1F700C00000B7
:100230006F5F653068F28FEF87BB10E02FCFBE0194
:100240006F5F7F4F80E090E00E948D019E9912E0E9
:100250009D9913E083E00E94BA01BC0180E090E028
:100260000E948D022CE53FE842E050E40E94EC0140
:100270000E945E0298B38DEC689F812D11248695B3
:1002800086958695382F330F232F220F220F230FA9
:10029000362F321B232F2F70907F922B98BB28B3C1
:1002A00030E1839FC0011124922F9F70892B88BB5E
:1002B0008981681738F48BB380618BBB82B381600E
:1002C00082BB06C08BB38F7E8BBB82B38E7F82BB1B
:1002D0008981861738F48BB381608BBB82B38260CF
:1002E00082BBDCCE8BB38E7F8BBB82B38D7F82BB18
:1002F000D5CECF93DF93C82FD62F0E94D30188EAA3
:100300000E94DC018D2F0E94DC018C2F0E94DC01F9
:100310000E94D901DF91CF9108951F93CF93DF936E
:10032000182FEB010E94D30188EA0E94DC01812F83
:100330000E94DC010E94D30189EA0E94DC01CE0107
:100340000E94E3010E94D901DF91CF911F9108958E
:100350000E94360080E090E0089587B1806487B9FC
:1003600087B18F7787B986B1806886B986B1846096
:1003700086B9089597B1907E892B87B986B180643C
:1003800086B9349BFECF8FE19EE40197F1F700C060
:10039000000084B195B1089511B887E080B986B79F
:1003A000846086BF089584EA86BF06B607FEFDCF47
:1003B000089584E986BF089583B984E886BF06B6A8
:1003C00007FEFDCF089524E826BF06B607FEFDCF41
:1003D00023B1FC01208308950E9400020C94E102E5
:1003E0000E94DA0258F00E94D30240F029F45F3FE5
:1003F00029F00C94CA0251110C9415030C94D002EC
:100400000E94F20268F39923B1F3552391F3951BEF
:10041000550BBB27AA2762177307840738F09F5F25
:100420005F4F220F331F441FAA1FA9F335D00E2E92
:100430003AF0E0E832D091505040E695001CCAF7FF
:100440002BD0FE2F29D0660F771F881FBB1F2617C2
:1004500037074807AB07B0E809F0BB0B802DBF0199
:10046000FF2793585F4F3AF09E3F510578F00C9468
:10047000CA020C9415035F3FE4F3983ED4F38695CB
:1004800077956795B795F7959F5FC9F7880F911D89
:100490009695879597F90895E1E0660F771F881F75
:1004A000BB1F621773078407BA0720F0621B730B28
:1004B000840BBA0BEE1F88F7E09508950E94FA02AC
:1004C00088F09F5798F0B92F9927B751B0F0E1F015
:1004D000660F771F881F991F1AF0BA95C9F714C0C5
:1004E000B13091F00E941403B1E008950C9414030C
:1004F000672F782F8827B85F39F0B93FCCF38695FE
:1005000077956795B395D9F73EF49095809570955A
:1005100061957F4F8F4F9F4F0895E89409C097FBD7
:100520003EF490958095709561957F4F8F4F9F4FCA
:100530009923A9F0F92F96E9BB279395F69587950E
:1005400077956795B795F111F8CFFAF4BB0F11F4D1
:1005500060FF1BC06F5F7F4F8F4F9F4F16C0882378
:1005600011F096E911C0772321F09EE8872F762FAE
:1005700005C0662371F096E8862F70E060E02AF0EF
:100580009A95660F771F881FDAF7880F96958795DB
:1005900097F9089597F99F6780E870E060E0089503
:1005A0009FEF80EC089500240A941616170618068B
:1005B0000906089500240A94121613061406050667
:1005C0000895092E0394000C11F4882352F0BB0FF8
:1005D00040F4BF2B11F460FF04C06F5F7F4F8F4F5B
:1005E0009F4F089557FD9058440F551F59F05F3F96
:1005F00071F04795880F97FB991F61F09F3F79F045
:1006000087950895121613061406551FF2CF4695C6
:10061000F1DF08C0161617061806991FF1CF869548
:100620007105610508940895E894BB27662777272C
:0A063000CB0197F90895F894FFCF6D
:00000001FF
